:040000001C0E0000D2
:040001001C0E0000D1
:04000200180E0000D4
:040003000C00065394
:040004000C00065393
:040005000C00075391
:040006000C004000AA
:040007000C00438026
:040008000C008080E8
:040009000C00C00027
:04000A000C060400DC
:04000B000C0C0000D9
:04000C000C0C800058
:04000D000C040400DB
:04000E000C080000DA
:04000F000F320000AC
:040010000F3280002B
:040011000F320008A2
:040012000F32800821
:040013001E2E00009D
:040014001F3E00008B
:040015001E0E0000BB
:040016000C020000D8
:040017000E320000A5
:040018000CCA00000E
:040019000CCA80008D
:04001A000CCA000804
:04001B000CCA800883
:04001C001CCE0000F6
:04001D000C0A0008C1
:04001E0000000000DE
:04001F0000000000DD
:0400200000000000DC
:0400210000000000DB
:0400220000000000DA
:0400230000000000D9
:0400240000000000D8
:0400250000000000D7
:0400260000000000D6
:0400270000000000D5
:0400280000000000D4
:0400290000000000D3
:04002A0000000000D2
:04002B0000000000D1
:04002C0000000000D0
:04002D0000000000CF
:04002E0000000000CE
:04002F0000000000CD
:0400300000000000CC
:0400310000000000CB
:0400320000000000CA
:0400330000000000C9
:0400340000000000C8
:0400350000000000C7
:0400360000000000C6
:0400370000000000C5
:0400380000000000C4
:0400390000000000C3
:04003A0000000000C2
:04003B0000000000C1
:04003C0000000000C0
:04003D0000000000BF
:04003E0000000000BE
:04003F0000000000BD
:00000001FF
